:020000020000FC
:040000000C94340028
:040034000C946800C0
:100068000FEF0DBF08E00EBF0E9460000E945B000A
:10007800289A0E9465000E9448000E94540010308F
:10008800C1F7289A0C943D0029B12417E9F35AE0E6
:100098005A9539B13217C1F75030D1F7422F089528
:1000A8002227E40FF21F149110938100089501E0B4
:1000B80000936F0078940895002709B901E004B906
:1000C8000895ECEDF0E00895289902C0289A189553
:0800D8002898189500040305A7
:00000001FF
