:020000020000FC
:040000000C94340028
:040040000C948C0090
:100068000FEF0DBF08E00EBF78940E944D000E946C
:1000780054000FEF04B9E0E0FAE00E945B00EEE103
:10008800FAE00E945B000E9467000E9476000C94D0
:10009800470007E60093C40000E00093C5000895F8
:1000A80008E10093C10006E00093C200089545915D
:1000B8004093C6000E946E002091C00025FFFCCF2F
:1000C8004030A9F708952091C00027FFFCCF109178
:1000D800C600089501E000936E0001E005BD003000
:1000E800F1F7089531E0ECE4FAE02591121719F0E0
:1000F800330F0C94790025B12323203021F425B146
:10010800232B25B9089525B13095232325B90895C2
:06011800002705BD18954B
:100A00002A2A2A20486F6C61204C61626F2064653D
:100A1000204D6963726F73202A2A2A0D0A004573DC
:100A2000637269626120312C20322C2033206F20C8
:100A300034207061726120636F6E74726F6C6172CA
:100A4000206C6F73204C4544730D0A0031323334EF
:00000001FF
